:020000040800F2
:10000000E004002001010008090100080B010008BC
:100010000D0100080F010008110100080000000098
:1000200000000000000000000000000013010008B4
:100030001501000800000000170100082D16000837
:100040001B0100081B0100081B0100081B01000820
:100050001B0100081B0100081B0100081B01000810
:100060001B0100081B0100081B0100081B01000800
:100070001B0100081B0100081B0100081B010008F0
:100080001B0100081B0100081B0100081B010008E0
:100090001B0100081B0100081B0100081B010008D0
:1000A0001B0100081B0100081B0100081B010008C0
:1000B000D51600081B0100081B0100081B010008E1
:1000C0001B0100081B0100081B0100081B010008A0
:1000D0001B010008A11900081B0100081B010008F2
:1000E0001B0100081B0100081B010008DFF80CD0F1
:1000F00000F02EF800480047E11C0008E004002052
:100100000648804706480047FEE7FEE7FEE7FEE7B1
:10011000FEE7FEE7FEE7FEE7FEE7FEE78D160008D6
:10012000ED00000830B50B460146002020220124D6
:1001300009E021FA02F59D4205D303FA02F5491BB5
:1001400004FA02F52844151EA2F10102F1DC30BDCB
:10015000064C074D06E0E06840F0010394E8070014
:1001600098471034AC42F6D3FFF7C4FFE41D0008F3
:10017000041E000831B500F0E7F8044600F0E4F88A
:100180000099001B8842F9D338BD00002DE9F84FD3
:10019000DFF890A100220AF1040B144601274FF06A
:1001A0000F090BF1040E00BF0B6807FA04F52B4092
:1001B000AB4274D1DFF870C14E68A6EB0C086645FF
:1001C0002BD00DDC032E34D005DC36B3012E19D034
:1001D000022E2FD11BE0112E16D0122E2AD119E09B
:1001E000B8F5881F19D006DCB8F5803F15D0B8F5F2
:1001F000801F1FD111E0B8F5001F0ED0B8F5041F05
:1002000018D10AE0CA6815E0CA68121D12E0CA686F
:1002100008320FE0CA680C320CE08A682AB1012A61
:100220004FF0080203D0456104E0042202E00561BA
:1002300000E00022FF2B01D8064601E000F1040691
:100240004FEA840501D9A5F12005D6F800C009FAC6
:1002500005F82CEA080C02FA05F54CEA050CC6F87C
:1002600000C04D68ED0057D5304DAE6946F001062F
:10027000AE61AD6924F0030605F0010500952C4D33
:1002800006EB050CDCF80850A6074FEA167809FAC9
:1002900008F6B543274EB04202D1002610E03BE0FD
:1002A000254EB04201D101260AE0244EB04201D1D0
:1002B000022605E0224EB04201D1032600E00426CA
:1002C00006FA08F62E43CCF808604D68DAF80060AC
:1002D000ED03554601D51E4300E09E432E604D6858
:1002E000DBF80060AD035D4601D51E4300E09E4390
:1002F0002E604D68DEF80060ED02754601D51E43A4
:1003000000E09E432E604D68AD020E4D2E6801D573
:100310001E4300E09E432E60641C102CFFF444AF8B
:10032000BDE8F88F000401400000111000100240E9
:100330000000014000080140000C01400010014095
:10034000001401400C04014001480068704700009F
:100350000000002002480168491C0160704700004D
:1003600000000020074810B5016841F0100101604D
:10037000032000F065F8002000F006F800F016F801
:10038000002010BD0020024010B5044600F0AEF978
:100390004FF47A71B0FBF1F000F0A4FD0022214689
:1003A000501E00F02DF8002010BD00000C4808B5CC
:1003B000816941F001018161806900F001000090D4
:1003C000032000F03DF800221146501E00F018F8FE
:1003D0000448416821F0E06141F00071416008BDCE
:1003E000001002400000014000F01F020121914076
:1003F0004009800000F1E020C0F8001170470000C3
:10040000F0B40E4B1B680C46C3F30223C3F107057F
:10041000042D00D90425191D072901D2002300E06D
:10042000DB1E012606FA05F1491E214099409E4037
:10043000761E16403143F0BC01F0E8B80CED00E048
:10044000064900F0070208684FF6FF03184040EA2B
:100450000220034A10430860704700000CED00E0E2
:100460000000FA052DE9F047DFF8789205460E46C0
:10047000D9F80000022300F00707012041044206DA
:10048000994C41F28838B74271D2D9F800C02CF0AB
:10049000070C4CEA060CC9F800C0D9F8007007F048
:1004A0000707B7426FD12E78B60705D56668AF68E3
:1004B00026F0F0063E4366602E78F60756D06E684A
:1004C000012E0BD0022E1ED093FAA3F1B1FA81F1C6
:1004D00041F02001490924D0216823E091FAA1F2DA
:1004E000B2FA82F242F02002520901D0226800E002
:1004F000626A91FAA1F1B1FA81F101F01F0188401D
:10050000024240D017E092FAA2F1B1FA81F141F033
:100510002001490901D0216800E0616A92FAA2F243
:1005200002E0616A93FAA3F2B2FA82F202F01F02C9
:100530009040014227D0606820F0030030436060A3
:10054000FFF702FF06466868012809D002284746DF
:1005500013D01EE0FFF7F8FE801BB84201D992E0ED
:1005600047466068C0F381000128F3D1A1E015E09F
:10057000FFF7EAFE801BB84273D86068C0F38100C1
:100580000228F5D195E092E0FFF7DEFE801BB8422D
:1005900079D8606810F00C0FF6D18AE02F78BF0789
:1005A00007D56768D5F808C027F0F00747EA0C07B9
:1005B00067602F78FF076DD06F68012F0BD0022F77
:1005C0001ED093FAA3F1B1FA81F141F0200149095B
:1005D00024D0216823E091FAA1F2B2FA82F242F02B
:1005E0002002520901D0226800E0626A91FAA1F16A
:1005F000B1FA81F101F01F018840024257D017E0A3
:1006000092FAA2F1B1FA81F141F02001490901D039
:10061000216800E0616A92FAA2F202E0616A93FA4C
:10062000A3F2B2FA82F202F01F02904001423ED0E1
:10063000606820F0030038436060FFF785FE0746DE
:100640006868012807D0022811D01FE0FFF77CFE60
:10065000C11B414517D86068C0F381000128F5D15E
:1006600018E010E0FFF770FEC11B41450BD8606831
:10067000C0F381000228F5D10CE000BFFFF764FE53
:10068000C11B414502D90320BDE8F087606810F026
:100690000C0FF3D1D9F8001021F007013143C9F84C
:1006A0000010D9F8000000F00700B04201D001208E
:1006B000EAE72878400705D56068E96820F4E0603B
:1006C000084360602878000706D56068296920F42F
:1006D000605040EAC10060600020FFF755FE002036
:1006E000D2E70000002002400010024010B500F0E8
:1006F00043F808494968F02292FAA2F201F0F001A9
:10070000B2FA82F2D140044A515CC8400349086001
:1007100010BD000000100240D41D0008040000209D
:1007200010B5FFF7E3FF074949684FF4E06292FA1A
:10073000A2F201F4E061B2FA82F2D140024A515CC5
:10074000C84010BD00100240D41D000810B5FFF7CE
:10075000CDFF074949684FF4605292FAA2F201F4C2
:100760006051B2FA82F2D140024A515CC84010BDD9
:1007700000100240D41D000810B519A385B00FCB9E
:100780008DE80F001AA01B4B006804905A681A48A5
:1007900002F00C0104291DD008291BD14FF470145C
:1007A00094FAA4F402F47011B4FA84F4E140D20390
:1007B0001DF8011010D55A684FF4003393FAA3F3D3
:1007C00002F40032B3FA83F3DA4004AB9A5CB0FB74
:1007D000F2F0484305B010BD08484843FAE700006E
:1007E00002030405060708090A0B0C0D0E0F101072
:1007F000010200000010024000127A0000093D00D2
:100800002DE9F84F05460078DFF85C95C0074FF0FA
:10081000010429D0D9F804004E46C0F381006704D2
:10082000012807D07068C0F3810002281DD17068CC
:10083000C0031AD597FAA7F0B0FA80F040F0200074
:10084000400901D0306800E0706A97FAA7F1B1FA68
:1008500081F101F01F0104FA01F1084204D0686837
:10086000012801D0052879D184E0306820F4803057
:100870003060306820F480203060FFF765FD8246EC
:1008800041F2883806E000BFFFF75EFDA0EB0A01E9
:1008900041457DD897FAA7F0B0FA80F040F02000EB
:1008A000400901D0306800E0706A97FAA7F1B1FA08
:1008B00081F101F01F0104FA01F10842E4D130682E
:1008C00020F480303060686801280BD0052811D0F2
:1008D000306820F480203060686858B3FFF734FD3A
:1008E000824611E0306820F480203060306840F4A7
:1008F0008030F0E70520B070EEE700BFFFF724FD81
:10090000A0EB0A014145C4D897FAA7F0B0FA80F0ED
:1009100040F02000400901D0306800E0706A97FA8A
:10092000A7F1B1FA81F101F01F0104FA01F10842C7
:10093000E4D01FE0FFF708FD824605E0FFF704FD65
:10094000A0EB0A014145A4D897FAA7F0B0FA80F0CD
:1009500040F02000400902D0306801E0BAE0706A3F
:1009600097FAA7F1B1FA81F101F01F0104FA01F140
:100970000842E3D12878FD4F80074FF0000A4FF07E
:10098000020634D5D9F80410484611F00C0F00E0E7
:10099000B0E108D04168C846C1F38101022927D1DE
:1009A0004168C90324D496FAA6F1B1FA81F141F065
:1009B0002001490901D0016800E0416A96FAA6F2D7
:1009C000B2FA82F202F01F0204FA02F2114202D0DD
:1009D000296901297ED10168F82321F0F80293FAF0
:1009E000A3F36969B3FA83F399400A4302604FE0C5
:1009F000286938B394FAA4F0B0FA80F047F82040A0
:100A0000FFF7A2FC834605E0FFF79EFCA0EB0B007E
:100A1000642898D896FAA6F0B0FA80F040F020004A
:100A20004009404601D0006800E0406A96FAA6F10D
:100A3000B1FA81F101F01F0104FA01F10842E3D09B
:100A40004046C8E794FAA4F1B1FA81F147F821A031
:100A5000FFF77AFC834605E0FFF776FCA0EB0B007E
:100A60006428D6D896FAA6F0B0FA80F040F02000BC
:100A70004009404601D0006800E0406A96FAA6F1BD
:100A8000B1FA81F101F01F0104FA01F10842E3D14A
:100A90002878000773D5A869D8B394FAA4F0B0FAFF
:100AA00080F007EB8000C0F88044FFF74DFC8046E3
:100AB00006E000BFFFF748FCA0EB08006428A8D8B8
:100AC00096FAA6F0B0FA80F040F06000B4EB501F48
:100AD00004D100E0D7E1D9F800000CE096FAA6F0C6
:100AE000B0FA80F040F06000B6EB501F484601D1EC
:100AF000006A00E0406A96FAA6F1B1FA81F101F0CD
:100B00001F0204FA02F10842D4D00120FFF732FBA1
:100B100035E0FFE794FAA4F1B1FA81F107EB810126
:100B2000C1F880A4FFF710FC804605E0FFF70CFC3D
:100B3000A0EB0800642894D896FAA6F0B0FA80F0EA
:100B400040F06000B4EB501F02D1D9F800000CE077
:100B500096FAA6F0B0FA80F040F06000B6EB501FB5
:100B6000484601D1006A00E0406A96FAA6F1B1FA5F
:100B700081F101F01F0204FA02F10842D6D128786F
:100B800040077DD5D9F81C1041F08051C9F81C10E0
:100B9000D9F81C00DFF8D8B100F080500090DBF8E5
:100BA000001041F48071CBF80010FFF7CDFB8046B8
:100BB00006E000BFFFF7C8FBA0EB08006428BAD826
:100BC000DBF80000C005F5D594FAA4F1B1FA81F183
:100BD00007EB8101C1F800A44FF0040B9BFAABF1C5
:100BE000B1FA81F107EB8101C1F800A4FFF7ACFB7A
:100BF000009007E0FFF7A8FB0099411A41F2883006
:100C0000814277D896FAA6F0B0FA80F040F0400022
:100C1000B4EB501F02D1D9F800000CE096FAA6F010
:100C2000B0FA80F040F04000B6EB501F484601D1CA
:100C3000006A00E0406A96FAA6F1B1FA81F101F08B
:100C40001F0104FA01F1A0460842D3D1E868E0B1DF
:100C5000012850462AD094FAA4F1B1FA81F107EBA9
:100C60008101C1F800049BFAABF000BFB0FA80F03C
:100C700007EB8000C0F80044E868012821D000E0BC
:100C800083E0FFF761FB834656E094FAA4F1B1FAE2
:100C900081F107EB8101C1F800A49BFAABF1B1FA35
:100CA00081F107EB8101C1F800A4E5E79BFAABF104
:100CB000B1FA81F107EB8101C1F8000494FAA4F0C4
:100CC000D4E7FFF741FB834608E000BFFFF73CFB9A
:100CD000A0EB0B0141F2883081420BD896FAA6F0C6
:100CE000B0FA80F040F04000B8EB501F03D1D9F8C3
:100CF00000000DE09DE096FAA6F0B0FA80F040F01A
:100D00004000B6EB501F484601D1006A00E0406A3F
:100D100096FAA6F1B1FA81F101F01F0208FA02F188
:100D20000842D3D031E000BFFFF70EFBA0EB0B0170
:100D300041F2883081427CD896FAA6F0B0FA80F071
:100D400040F04000B8EB501F02D1D9F8000012E08B
:100D500096FAA6F0B0FA80F040F04000B6EB501FD3
:100D6000484607D1006A06E00010024000004242F7
:100D700000700040406A96FAA6F1B1FA81F101F0E4
:100D80001F0208FA02F10842CED1E869B0B3D9F8DF
:100D900004104E46C1F38101022974D002284FF09D
:100DA00080714FF0007950460AD091FAA1F1B1FA62
:100DB00081F147F82100FFF7C7FA07464D466BE07F
:100DC0008A4691FAA1F1B1FA81F1BB4647F82100B8
:100DD000FFF7BAFA80464F4606E000BFFFF7B4FAC5
:100DE000A0EB0800642854D897FAA7F0B0FA80F076
:100DF00040F02000400902D0306801E061E0706AF4
:100E000097FAA7F1B1FA81F101F01F0104FA01F19B
:100E10000842E3D1286AB0F5803F05D17068A9681F
:100E200020F4003008437060D5E908010843716878
:100E300000E02EE021F47411084370609AFAAAF0E1
:100E4000B0FA80F04BF82040FFF77EFA054604E048
:100E5000FFF77AFA401B64281BD897FAA7F0B0FA7C
:100E600080F040F02000400901D0306800E0706A56
:100E700097FAA7F1B1FA81F101F01F0104FA01F12B
:100E80000842E5D01DE01EE0FFF75EFAC01B6428B3
:100E900002D90320BDE8F88F95FAA5F0B0FA80F0EA
:100EA00040F02000400901D0306800E0706A95FAF7
:100EB000A5F1B1FA81F101F01F0104FA01F1084234
:100EC000E2D10020E6E70120E4E74FF0E02104282A
:100ED000086903D020F004000861704740F0040066
:100EE000FAE7704710B5401EB0F1807F01D30120B2
:100EF00010BD4FF0E02460610F21601700F086FB09
:100F00000020A06107202061002010BD10B5FFF770
:100F1000E8FF10BD7047704730B590F83820012ABF
:100F200020D0012280F83820022380F8393003686D
:100F30005C6824F070045C6003685C680D682C4396
:100F40005C6003689C6824F080049C6003689C6873
:100F500049680C439C6080F83920002180F83810E3
:100F6000084630BD022030BD10B5040003D094F80F
:100F7000390010B107E0012010BD002084F83800CE
:100F8000204600F00DF8022084F83900211D206869
:100F900000F0A6FB012084F83900002010BD0000FD
:100FA00008B50068B0F1804F12D10A48C16941F01C
:100FB0000101C161C069002200F0010000901146EA
:100FC0001C20FFF71DFABDE808401C20FFF70CBAF3
:100FD00008BD0000001002400168CA6842F001022A
:100FE000CA600068016841F001010160002070479B
:100FF00070B5044690F83800012817D0012584F810
:101000003850022084F839002068826822F0770284
:1010100022F47F4282600868502837D00DDC2028F7
:1010200059D005DC88B3102841D151E0022070BDB1
:10103000302853D040283AD13FE060282ED0702885
:101040000BD0B0F5805F03D0B0F5005F2FD110E07A
:101050002068816821F0070115E0CB68D1E9012102
:10106000206800F06FFB2168886840F07700886096
:101070001DE0CB68D1E90121206800F063FB206806
:10108000816841F48041816011E01EE0CA684968CE
:10109000206800F069FB5021206806E0CA684968B2
:1010A000206800F072FB6021206800F055FB84F896
:1010B0003950002084F8380070BDCA68496820683B
:1010C00000F052FB40212068EFE700212068ECE7A8
:1010D00010212068E9E720212068E6E73021206818
:1010E000E3E7704770B50446006801694FF00005FA
:1010F000C943890715D4C168C943890711D4E91EBA
:10110000016101202076206880698007204602D096
:10111000FFF7E7FF04E000F098F8204600F096F8AB
:10112000257620680169C943490717D4C168C943B6
:10113000490713D46FF00401016102202076206872
:10114000806910F4407F204602D0FFF7CAFF04E018
:1011500000F07BF8204600F079F8257620680169D8
:10116000C943090716D4C168C943090712D46FF0EF
:1011700008010161042020762068C06980072046AC
:1011800002D0FFF7AEFF04E000F05FF8204600F069
:101190005DF8257620680169C943C90617D4C1687E
:1011A000C943C90613D46FF01001016108202076ED
:1011B0002068C06910F4407F204602D0FFF791FFFD
:1011C00004E000F042F8204600F040F82576206860
:1011D0000169C943C90708D1C168C943C90704D116
:1011E000891E0161204600F033F820680169C94377
:1011F000090609D4C168C943090605D46FF0800106
:1012000001612046FFF786FE20680169C94349064F
:1012100009D4C168C943490605D46FF04001016192
:10122000204600F01DF820680169C94389060BD4E7
:10123000C168C943890607D46FF0200101612046C7
:10124000BDE87040FFF767BE70BD70477047000093
:101250000249884201D100F0F1BC70473000002003
:101260007047704738B504460068016811F0010FF7
:10127000C16801F4807107D031B101684168009103
:10128000E16B41F00101E1630168C1F34002416992
:1012900001F001013AB131B1026842680092E26B9B
:1012A00042F00402E2630268C2F380023AB131B153
:1012B000026842680092E26B42F00202E263026856
:1012C000C2F3C0023AB131B1016841680091E16BEB
:1012D00041F00801E1630168C068C1F3401100F00A
:1012E000200019B110B1204600F062FA21680868A8
:1012F000C968C0F3C01001F0800118B111B12046D7
:1013000000F01AFB21680868CA68C0F3801002F078
:101310004002012590B18AB1CA68204622F04002FD
:10132000CA6094F83910322911D001684A6922F054
:1013300001024A6180F8395000F0D2F8E06B0028D1
:1013400004D084F839502046FFF78BFF38BD2221A6
:1013500080F83910F0E770B5040004D094F8390033
:10136000002510B106E0012070BD84F838502046F9
:1013700000F020F8022084F839002068C16821F4C8
:101380000051C160204600F067FA2068016921F42D
:10139000904101612068416921F02A014161206882
:1013A000C16841F40051C160E563012084F839004F
:1013B000002070BD10B50068154986B0884225D15F
:1013C0001448816941F4804181618069124C00F4C4
:1013D000804004904FF400700090022001900320A0
:1013E000039069462046FEF7D1FE00212015CDE985
:1013F0000001029169462046FEF7C8FE0022114610
:101400002520FEF7FDFF2520FEF7EEFF06B010BDFC
:1014100000380140001002400008014090F83930C7
:10142000012B01D0122B2CD139B332B390F83830C4
:10143000012B26D0012380F8383081628285C28555
:101440000021C16390F83920122A18D05FF02202DF
:1014500080F8392080F838100168CA6842F4807238
:10146000CA6001684A6942F001024A610068C168C5
:1014700041F02001C16000207047012070473222F6
:10148000E6E702207047000030B500681149884245
:101490000CD1114841880A0408D402464C04127841
:1014A0004FF0000306D50A2A01D0438030BD41F435
:1014B00000410DE00D2A09D0C1F30D04074D491C70
:1014C00089B22A5541803129EFD830BD41F480419D
:1014D000418030BD00380140180000206C00002021
:1014E000704700002DE9F041294886B0816941F03C
:1014F00010018161816901F010010491816941F05D
:1015000020018161816901F020010491816941F02C
:1015100008018161816901F008010491816941F04C
:10152000040181618069012400F0040004904FF4FB
:101530000050CDE900040325694603951548FEF7E0
:1015400025FEA0020026CDE90006DFF84C806946A2
:1015500002944046FEF71AFEE702CDE900746946A0
:1015600040460395FEF712FE2002CDE900060B4E21
:10157000694602943046FEF709FECDE900746946DB
:1015800030460395FEF702FE06B0BDE8F08100008C
:101590000010024000100140000C01400008014012
:1015A00010B50F4886B04FF08041016041F61F41F1
:1015B0000024C0E9011440F2E731C0E90314FFF749
:1015C000D3FC4FF48050009069460548FFF710FDAA
:1015D000049404A902480594FFF79EFC06B010BDD0
:1015E000300000200848074901604FF4164141606F
:1015F000002181600C22C160C0E904128161C161D7
:10160000FFF7A9BE00380140A00000200907090E1D
:10161000002806DA00F00F0000F1E02080F8141D29
:10162000704700F1E02080F80014704710B5FEF715
:1016300091FEBDE81040FFF769BC30B58FB00120C6
:1016400000240090CDE9010402250004CDE90750F3
:101650004FF4E01009906846FFF7D2F80520CDE975
:101660000A056802CDE90C4002210AA80E94FEF793
:10167000F9FEFFF73BF84FF47A71B0FBF1F0FFF79A
:1016800031FC0420FFF721FC0FB030BD0D4801688C
:1016900041F00101016041680B4A1140416001685D
:1016A0000A4A11400160016821F48021016041680B
:1016B00021F4FE0141604FF41F0181600449C00321
:1016C00008607047001002400000FFF8FFFFF6FEC0
:1016D00008ED00E00148FFF705BD000030000020E4
:1016E000F0B50268144B154C154D4FF080479842E9
:1016F00005D0B84203D0A04201D0A84203D122F0C5
:1017000070064A683243984205D0B84203D0A042DE
:1017100001D0A84203D122F44074CA682243026077
:101720008A68C2620A688262984201D109690163CB
:1017300001214161F0BD0000002C01400004004087
:101740000008004010B5846842EA032224F47F4474
:101750000A432243826010BD826822F070020A436D
:1017600042F007018160704710B5036A046A24F0F3
:1017700001040462846924F0F00444EA021423F0B2
:101780000A020A438461026210BD10B5036A23F0A5
:10179000100303628369046A23F4704343EA02324C
:1017A00024F0A00343EA01118261016210BD000030
:1017B00010B590F83910222903D0322901D0022027
:1017C00010BD8168B1F5805F11D001690029016801
:1017D0001FD0496801F07F03816A4A1C82620B7046
:1017E000C18D491E0904090CC18518D030E0026979
:1017F000816A002A0268526805D0D2B20A80816AE2
:10180000491C8162ECE7C2F308020A80816A891CE4
:10181000F7E74A68816A4B1C83620A70E0E7016857
:10182000CA6822F02002CA6090F83910322911D01B
:101830000168CA6822F48072CA6001684A6922F0AD
:1018400001024A615FF0010180F83910FFF71CFEC8
:10185000002010BD1221F7E72DE9F0410446006891
:101860000169E26821F44051114301612169A068D6
:101870000843616908432168CA6841F20C639A43CE
:101880000243CA6020684169A26921F44071114392
:1018900041612849206864254FF03208884218D1F8
:1018A000FEF754FF00EBC00101EB001061688900F6
:1018B000B0FBF1F0B0FBF5F6FEF748FF00EBC0011E
:1018C00001EB001061688900B0FBF1F7FEF73EFF05
:1018D00017E0FEF725FF00EBC00101EB0010616887
:1018E0008900B0FBF1F0B0FBF5F6FEF719FF00EB55
:1018F000C00101EB001061688900B0FBF1F7FEF751
:101900000FFF00EBC00101EB001061688900B0FB24
:10191000F1F0B0FBF5F06FF01801484307EB8001E0
:1019200008EB0110B0FBF5F0216866F31F1088602A
:10193000BDE8F0810038014090F83910122903D039
:10194000322901D0022070478168B1F5805F016AB9
:101950000BD04A1C0262026809785160C18C491E92
:101960000904090CC1840ED017E009880268C1F38C
:101970000801516001690029016A02D0491C016215
:10198000ECE7891CFBE70168CA6822F08002CA60A4
:101990000068C16841F04001C1600020704700004C
:1019A0000148FFF75FBC0000A00000200FB4054B0A
:1019B00010B503A9044A029800F018F810BC5DF8AD
:1019C00014FB0000C91C00081C00002002E008C82D
:1019D000121F08C1002AFAD170477047002001E0A9
:1019E00001C1121F002AFBD1704700002DE9FF4FF3
:1019F0008BB09A460F460546002606E025280BD0F8
:101A000052460D9990476D1C761C28780028F5D118
:101A10000FB03046BDE8F08F0024A0460122604997
:101A200000E0044315F8013F203B02FA03F00842AE
:101A3000F7D128782E2817D115F8010F44F00404A7
:101A40002A280ED06FF02F022878A0F13001092942
:101A50000AD808EB880102EB410100EB01086D1C7C
:101A6000F2E757F8048B6D1C287869283ED006DC15
:101A70000028CDD063280BD0642804D136E0732829
:101A800010D075284BD052460D999047761C85E0B2
:101A900017F8040B8DF8000000208DF80100E946CE
:101AA000012003E057F8049B4FF0FF3061074FF02F
:101AB000000401D40AE0641C44450DDA8442FADBD8
:101AC00019F804100029F6D106E0641C8442FCDBFE
:101AD00019F804100029F8D1264404E019F8010B84
:101AE00052460D999047641EF8D257E001CF4FF04F
:101AF0000A0B002802DA40422D2102E0210504D51C
:101B00002B218DF82410012103E0E10705D02021CD
:101B1000F7E70DF1200908910CE00021F9E701CF6A
:101B20004FF00A0BF9E75946FEF7FCFA01F13002D3
:101B300009F8012D0028F6D1ADEB090000F1200BCA
:101B4000600701D44FF00108D84502DDA8EB0B0077
:101B500000E000208046002406E009A85246005D0F
:101B60000D999047641C761C08988442F5DB04E0CC
:101B7000302052460D999047761CB8F10001A8F12B
:101B80000108F5DC05E019F8010B52460D99904764
:101B9000761CBBF10001ABF1010BF4DC6D1C34E7EA
:101BA0000928010004480121417000210170418091
:101BB000017100F033B800002000002030B50C4A5D
:101BC0005088401C80B25080012810D90948012457
:101BD000094D43780021012B01D023B106E0C5F85F
:101BE000AC41417002E0C5F8AC114470518030BD89
:101BF0002000002026000020008021420249002011
:101C0000C1F8AC0170470000008021420249012068
:101C1000C1F8AC01704700000080214210B5064CAD
:101C20000020C4F8AC014FF4FA7004F5D67400F04B
:101C300037F80120206010BD0000214210B500F0EF
:101C4000ABF80A49D1F820210948012A0AD0D1F875
:101C50002011002909D1012101700171BDE8104056
:101C6000FFF7ACBF00210170017110BD00002142DF
:101C7000200000204FF0E0210A6922F004020A61EE
:101C80000649C00800EB40020870C2EBC0104FF6D6
:101C9000FF7202EAC0004880704700002A0000205E
:101CA0000849498848434FF0E02148610020886195
:101CB00001220A610A69D30701D0D203FAD508616B
:101CC000886170472A00002004490A685206FCD542
:101CD000024AC1B2121D1160704700000038014075
:101CE000FEF740FBFFF7A9FCFFF7FCFBFFF758FCF2
:101CF000FFF778FC4820FFF7BDFF012219491A4879
:101D0000FFF78CFB1948FFF767F919A11AA0FFF735
:101D100049FF1D4D1D4C002628790028FCD1FFF7F6
:101D20006DFFD4F8280138B1092119A0FFF73EFE54
:101D30003220FFF7B5FFEFE73220FFF7B1FFD4F80D
:101D400028010028E8D16E70012111A0FFF72EFEB6
:101D5000FFF75CFFD4F828010128FBD1FFF74EFF05
:101D6000DAE7000018000020A0000020300000206A
:101D700034333231000000004A695F426C756554AB
:101D8000656574680000000020000020008021428A
:101D900025640D0A000000000C4810B54188491C5C
:101DA00089B2418005290FD902780123084C00210E
:101DB000012A01D022B106E0C4F8B431017002E07A
:101DC000C4F8B4110370418010BD0000260000204B
:101DD000000022420000000001020304010203048B
:101DE00006070809041E000800000020300000005B
:101DF000CC190008341E000830000020B004000098
:101E0000DC1900080000000000A24A0400000000E5
:101E1000000000000102030406070809000000009A
:101E200000000000000000000000010100000000B0
:041E300000000000AE
:04000005080000ED02
:00000001FF
